{
  "contractName": "Dex",
  "abi": [
    {
      "anonymous": false,
      "inputs": [
        {
          "indexed": true,
          "internalType": "address",
          "name": "previousOwner",
          "type": "address"
        },
        {
          "indexed": true,
          "internalType": "address",
          "name": "newOwner",
          "type": "address"
        }
      ],
      "name": "OwnershipTransferred",
      "type": "event"
    },
    {
      "inputs": [
        {
          "internalType": "bytes32",
          "name": "ticker",
          "type": "bytes32"
        },
        {
          "internalType": "address",
          "name": "tokenAddress",
          "type": "address"
        }
      ],
      "name": "addToken",
      "outputs": [],
      "stateMutability": "nonpayable",
      "type": "function"
    },
    {
      "inputs": [
        {
          "internalType": "address",
          "name": "",
          "type": "address"
        },
        {
          "internalType": "bytes32",
          "name": "",
          "type": "bytes32"
        }
      ],
      "name": "balances",
      "outputs": [
        {
          "internalType": "uint256",
          "name": "",
          "type": "uint256"
        }
      ],
      "stateMutability": "view",
      "type": "function",
      "constant": true
    },
    {
      "inputs": [
        {
          "internalType": "uint256",
          "name": "amount",
          "type": "uint256"
        },
        {
          "internalType": "bytes32",
          "name": "ticker",
          "type": "bytes32"
        }
      ],
      "name": "deposit",
      "outputs": [],
      "stateMutability": "nonpayable",
      "type": "function"
    },
    {
      "inputs": [],
      "name": "getTokenList",
      "outputs": [
        {
          "internalType": "bytes32[]",
          "name": "",
          "type": "bytes32[]"
        }
      ],
      "stateMutability": "view",
      "type": "function",
      "constant": true
    },
    {
      "inputs": [
        {
          "internalType": "bytes32",
          "name": "",
          "type": "bytes32"
        },
        {
          "internalType": "uint256",
          "name": "",
          "type": "uint256"
        },
        {
          "internalType": "uint256",
          "name": "",
          "type": "uint256"
        }
      ],
      "name": "orderBook",
      "outputs": [
        {
          "internalType": "uint256",
          "name": "id",
          "type": "uint256"
        },
        {
          "internalType": "address",
          "name": "trader",
          "type": "address"
        },
        {
          "internalType": "enum Dex.Side",
          "name": "side",
          "type": "uint8"
        },
        {
          "internalType": "bytes32",
          "name": "ticker",
          "type": "bytes32"
        },
        {
          "internalType": "uint256",
          "name": "amount",
          "type": "uint256"
        },
        {
          "internalType": "uint256",
          "name": "price",
          "type": "uint256"
        }
      ],
      "stateMutability": "view",
      "type": "function",
      "constant": true
    },
    {
      "inputs": [],
      "name": "owner",
      "outputs": [
        {
          "internalType": "address",
          "name": "",
          "type": "address"
        }
      ],
      "stateMutability": "view",
      "type": "function",
      "constant": true
    },
    {
      "inputs": [],
      "name": "renounceOwnership",
      "outputs": [],
      "stateMutability": "nonpayable",
      "type": "function"
    },
    {
      "inputs": [
        {
          "internalType": "uint256",
          "name": "",
          "type": "uint256"
        }
      ],
      "name": "tokenList",
      "outputs": [
        {
          "internalType": "bytes32",
          "name": "",
          "type": "bytes32"
        }
      ],
      "stateMutability": "view",
      "type": "function",
      "constant": true
    },
    {
      "inputs": [
        {
          "internalType": "bytes32",
          "name": "",
          "type": "bytes32"
        }
      ],
      "name": "tokenMapping",
      "outputs": [
        {
          "internalType": "bytes32",
          "name": "ticker",
          "type": "bytes32"
        },
        {
          "internalType": "address",
          "name": "tokenAddress",
          "type": "address"
        }
      ],
      "stateMutability": "view",
      "type": "function",
      "constant": true
    },
    {
      "inputs": [
        {
          "internalType": "address",
          "name": "newOwner",
          "type": "address"
        }
      ],
      "name": "transferOwnership",
      "outputs": [],
      "stateMutability": "nonpayable",
      "type": "function"
    },
    {
      "inputs": [
        {
          "internalType": "uint256",
          "name": "amount",
          "type": "uint256"
        },
        {
          "internalType": "bytes32",
          "name": "ticker",
          "type": "bytes32"
        }
      ],
      "name": "withdraw",
      "outputs": [],
      "stateMutability": "nonpayable",
      "type": "function"
    },
    {
      "inputs": [
        {
          "internalType": "bytes32",
          "name": "ticker",
          "type": "bytes32"
        },
        {
          "internalType": "enum Dex.Side",
          "name": "side",
          "type": "uint8"
        }
      ],
      "name": "getOrderBook",
      "outputs": [
        {
          "components": [
            {
              "internalType": "uint256",
              "name": "id",
              "type": "uint256"
            },
            {
              "internalType": "address",
              "name": "trader",
              "type": "address"
            },
            {
              "internalType": "enum Dex.Side",
              "name": "side",
              "type": "uint8"
            },
            {
              "internalType": "bytes32",
              "name": "ticker",
              "type": "bytes32"
            },
            {
              "internalType": "uint256",
              "name": "amount",
              "type": "uint256"
            },
            {
              "internalType": "uint256",
              "name": "price",
              "type": "uint256"
            }
          ],
          "internalType": "struct Dex.Order[]",
          "name": "",
          "type": "tuple[]"
        }
      ],
      "stateMutability": "view",
      "type": "function",
      "constant": true
    },
    {
      "inputs": [
        {
          "internalType": "enum Dex.Side",
          "name": "side",
          "type": "uint8"
        },
        {
          "internalType": "bytes32",
          "name": "ticker",
          "type": "bytes32"
        },
        {
          "internalType": "uint256",
          "name": "amount",
          "type": "uint256"
        },
        {
          "internalType": "uint256",
          "name": "price",
          "type": "uint256"
        }
      ],
      "name": "createLimitOrder",
      "outputs": [],
      "stateMutability": "nonpayable",
      "type": "function"
    }
  ],
  "bytecode": "0x608060405234801561001057600080fd5b5061002d61002261003260201b60201c565b61003a60201b60201c565b6100fe565b600033905090565b60008060009054906101000a900473ffffffffffffffffffffffffffffffffffffffff169050816000806101000a81548173ffffffffffffffffffffffffffffffffffffffff021916908373ffffffffffffffffffffffffffffffffffffffff1602179055508173ffffffffffffffffffffffffffffffffffffffff168173ffffffffffffffffffffffffffffffffffffffff167f8be0079c531659141344cd1fd0a4f28419497f9722a3daafe3b4186f6b6457e060405160405180910390a35050565b611a248061010d6000396000f3fe608060405234801561001057600080fd5b50600436106100cf5760003560e01c80638da5cb5b1161008c578063a8d2021a11610066578063a8d2021a14610218578063ba58ea6814610234578063c9630cb014610264578063f2fde38b14610280576100cf565b80638da5cb5b146101ae5780639776aacf146101cc5780639ead7222146101e8576100cf565b80630bb431b6146100d45780631f14df6914610109578063273cbaa014610139578063667cb4ba146101575780636f3b62f914610188578063715018a6146101a4575b600080fd5b6100ee60048036038101906100e99190611117565b61029c565b604051610100969594939291906116d1565b60405180910390f35b610123600480360381019061011e9190611011565b61032f565b60405161013091906116b6565b60405180910390f35b610141610354565b60405161014e91906115ae565b60405180910390f35b610171600480360381019061016c9190611076565b6103ac565b60405161017f92919061160d565b60405180910390f35b6101a2600480360381019061019d9190611166565b6103f0565b005b6101ac6104ff565b005b6101b6610587565b6040516101c39190611533565b60405180910390f35b6101e660048036038101906101e1919061109f565b6105b0565b005b61020260048036038101906101fd91906111c9565b6106eb565b60405161020f91906115f2565b60405180910390f35b610232600480360381019061022d91906111f2565b61070f565b005b61024e600480360381019061024991906110db565b6109c2565b60405161025b91906115d0565b60405180910390f35b61027e600480360381019061027991906111f2565b610b83565b005b61029a60048036038101906102959190610fe8565b610da5565b005b600460205282600052604060002060205281600052604060002081815481106102c457600080fd5b906000526020600020906005020160009250925050508060000154908060010160009054906101000a900473ffffffffffffffffffffffffffffffffffffffff16908060010160149054906101000a900460ff16908060020154908060030154908060040154905086565b6003602052816000526040600020602052806000526040600020600091509150505481565b606060028054806020026020016040519081016040528092919081815260200182805480156103a257602002820191906000526020600020905b81548152602001906001019080831161038e575b5050505050905090565b60016020528060005260406000206000915090508060000154908060010160009054906101000a900473ffffffffffffffffffffffffffffffffffffffff16905082565b6000600181111561042a577f4e487b7100000000000000000000000000000000000000000000000000000000600052602160045260246000fd5b846001811115610463577f4e487b7100000000000000000000000000000000000000000000000000000000600052602160045260246000fd5b14156104f95761047c8183610e9d90919063ffffffff16565b600360003373ffffffffffffffffffffffffffffffffffffffff1673ffffffffffffffffffffffffffffffffffffffff16815260200190815260200160002060007f455448000000000000000000000000000000000000000000000000000000000081526020019081526020016000205410156104f857600080fd5b5b50505050565b610507610eb3565b73ffffffffffffffffffffffffffffffffffffffff16610525610587565b73ffffffffffffffffffffffffffffffffffffffff161461057b576040517f08c379a000000000000000000000000000000000000000000000000000000000815260040161057290611676565b60405180910390fd5b6105856000610ebb565b565b60008060009054906101000a900473ffffffffffffffffffffffffffffffffffffffff16905090565b6105b8610eb3565b73ffffffffffffffffffffffffffffffffffffffff166105d6610587565b73ffffffffffffffffffffffffffffffffffffffff161461062c576040517f08c379a000000000000000000000000000000000000000000000000000000000815260040161062390611676565b60405180910390fd5b60405180604001604052808381526020018273ffffffffffffffffffffffffffffffffffffffff16815250600160008481526020019081526020016000206000820151816000015560208201518160010160006101000a81548173ffffffffffffffffffffffffffffffffffffffff021916908373ffffffffffffffffffffffffffffffffffffffff16021790555090505060028290806001815401808255809150506001900390600052602060002001600090919091909150555050565b600281815481106106fb57600080fd5b906000526020600020016000915090505481565b80600073ffffffffffffffffffffffffffffffffffffffff166001600083815260200190815260200160002060010160009054906101000a900473ffffffffffffffffffffffffffffffffffffffff1673ffffffffffffffffffffffffffffffffffffffff1614156107b6576040517f08c379a00000000000000000000000000000000000000000000000000000000081526004016107ad90611656565b60405180910390fd5b82600360003373ffffffffffffffffffffffffffffffffffffffff1673ffffffffffffffffffffffffffffffffffffffff1681526020019081526020016000206000848152602001908152602001600020541015610849576040517f08c379a000000000000000000000000000000000000000000000000000000000815260040161084090611696565b60405180910390fd5b82600360003373ffffffffffffffffffffffffffffffffffffffff1673ffffffffffffffffffffffffffffffffffffffff1681526020019081526020016000206000848152602001908152602001600020546108a59190611865565b600360003373ffffffffffffffffffffffffffffffffffffffff1673ffffffffffffffffffffffffffffffffffffffff1681526020019081526020016000206000848152602001908152602001600020819055506001600083815260200190815260200160002060010160009054906101000a900473ffffffffffffffffffffffffffffffffffffffff1673ffffffffffffffffffffffffffffffffffffffff1663a9059cbb33856040518363ffffffff1660e01b815260040161096a929190611585565b602060405180830381600087803b15801561098457600080fd5b505af1158015610998573d6000803e3d6000fd5b505050506040513d601f19601f820116820180604052508101906109bc919061104d565b50505050565b6060600460008481526020019081526020016000206000836001811115610a12577f4e487b7100000000000000000000000000000000000000000000000000000000600052602160045260246000fd5b8152602001908152602001600020805480602002602001604051908101604052809291908181526020016000905b82821015610b7757838290600052602060002090600502016040518060c0016040529081600082015481526020016001820160009054906101000a900473ffffffffffffffffffffffffffffffffffffffff1673ffffffffffffffffffffffffffffffffffffffff1673ffffffffffffffffffffffffffffffffffffffff1681526020016001820160149054906101000a900460ff166001811115610b0e577f4e487b7100000000000000000000000000000000000000000000000000000000600052602160045260246000fd5b6001811115610b46577f4e487b7100000000000000000000000000000000000000000000000000000000600052602160045260246000fd5b8152602001600282015481526020016003820154815260200160048201548152505081526020019060010190610a40565b50505050905092915050565b80600073ffffffffffffffffffffffffffffffffffffffff166001600083815260200190815260200160002060010160009054906101000a900473ffffffffffffffffffffffffffffffffffffffff1673ffffffffffffffffffffffffffffffffffffffff161415610c2a576040517f08c379a0000000000000000000000000000000000000000000000000000000008152600401610c2190611656565b60405180910390fd5b82600360003373ffffffffffffffffffffffffffffffffffffffff1673ffffffffffffffffffffffffffffffffffffffff168152602001908152602001600020600084815260200190815260200160002054610c8691906117b5565b600360003373ffffffffffffffffffffffffffffffffffffffff1673ffffffffffffffffffffffffffffffffffffffff1681526020019081526020016000206000848152602001908152602001600020819055506001600083815260200190815260200160002060010160009054906101000a900473ffffffffffffffffffffffffffffffffffffffff1673ffffffffffffffffffffffffffffffffffffffff166323b872dd3330866040518463ffffffff1660e01b8152600401610d4d9392919061154e565b602060405180830381600087803b158015610d6757600080fd5b505af1158015610d7b573d6000803e3d6000fd5b505050506040513d601f19601f82011682018060405250810190610d9f919061104d565b50505050565b610dad610eb3565b73ffffffffffffffffffffffffffffffffffffffff16610dcb610587565b73ffffffffffffffffffffffffffffffffffffffff1614610e21576040517f08c379a0000000000000000000000000000000000000000000000000000000008152600401610e1890611676565b60405180910390fd5b600073ffffffffffffffffffffffffffffffffffffffff168173ffffffffffffffffffffffffffffffffffffffff161415610e91576040517f08c379a0000000000000000000000000000000000000000000000000000000008152600401610e8890611636565b60405180910390fd5b610e9a81610ebb565b50565b60008183610eab919061180b565b905092915050565b600033905090565b60008060009054906101000a900473ffffffffffffffffffffffffffffffffffffffff169050816000806101000a81548173ffffffffffffffffffffffffffffffffffffffff021916908373ffffffffffffffffffffffffffffffffffffffff1602179055508173ffffffffffffffffffffffffffffffffffffffff168173ffffffffffffffffffffffffffffffffffffffff167f8be0079c531659141344cd1fd0a4f28419497f9722a3daafe3b4186f6b6457e060405160405180910390a35050565b600081359050610f8e81611982565b92915050565b600081519050610fa381611999565b92915050565b600081359050610fb8816119b0565b92915050565b600081359050610fcd816119c7565b92915050565b600081359050610fe2816119d7565b92915050565b600060208284031215610ffa57600080fd5b600061100884828501610f7f565b91505092915050565b6000806040838503121561102457600080fd5b600061103285828601610f7f565b925050602061104385828601610fa9565b9150509250929050565b60006020828403121561105f57600080fd5b600061106d84828501610f94565b91505092915050565b60006020828403121561108857600080fd5b600061109684828501610fa9565b91505092915050565b600080604083850312156110b257600080fd5b60006110c085828601610fa9565b92505060206110d185828601610f7f565b9150509250929050565b600080604083850312156110ee57600080fd5b60006110fc85828601610fa9565b925050602061110d85828601610fbe565b9150509250929050565b60008060006060848603121561112c57600080fd5b600061113a86828701610fa9565b935050602061114b86828701610fd3565b925050604061115c86828701610fd3565b9150509250925092565b6000806000806080858703121561117c57600080fd5b600061118a87828801610fbe565b945050602061119b87828801610fa9565b93505060406111ac87828801610fd3565b92505060606111bd87828801610fd3565b91505092959194509250565b6000602082840312156111db57600080fd5b60006111e984828501610fd3565b91505092915050565b6000806040838503121561120557600080fd5b600061121385828601610fd3565b925050602061122485828601610fa9565b9150509250929050565b600061123a8383611338565b60208301905092915050565b6000611252838361149a565b60c08301905092915050565b61126781611899565b82525050565b61127681611899565b82525050565b600061128782611752565b6112918185611782565b935061129c83611732565b8060005b838110156112cd5781516112b4888261122e565b97506112bf83611768565b9250506001810190506112a0565b5085935050505092915050565b60006112e58261175d565b6112ef8185611793565b93506112fa83611742565b8060005b8381101561132b5781516113128882611246565b975061131d83611775565b9250506001810190506112fe565b5085935050505092915050565b611341816118b7565b82525050565b611350816118b7565b82525050565b61135f816118fe565b82525050565b61136e816118fe565b82525050565b60006113816026836117a4565b91507f4f776e61626c653a206e6577206f776e657220697320746865207a65726f206160008301527f64647265737300000000000000000000000000000000000000000000000000006020830152604082019050919050565b60006113e76014836117a4565b91507f546f6b656e20646f6573206e6f742065786973740000000000000000000000006000830152602082019050919050565b60006114276020836117a4565b91507f4f776e61626c653a2063616c6c6572206973206e6f7420746865206f776e65726000830152602082019050919050565b60006114676016836117a4565b91507f42616c616e6365206e6f742073756666696369656e74000000000000000000006000830152602082019050919050565b60c0820160008201516114b06000850182611515565b5060208201516114c3602085018261125e565b5060408201516114d66040850182611356565b5060608201516114e96060850182611338565b5060808201516114fc6080850182611515565b5060a082015161150f60a0850182611515565b50505050565b61151e816118f4565b82525050565b61152d816118f4565b82525050565b6000602082019050611548600083018461126d565b92915050565b6000606082019050611563600083018661126d565b611570602083018561126d565b61157d6040830184611524565b949350505050565b600060408201905061159a600083018561126d565b6115a76020830184611524565b9392505050565b600060208201905081810360008301526115c8818461127c565b905092915050565b600060208201905081810360008301526115ea81846112da565b905092915050565b60006020820190506116076000830184611347565b92915050565b60006040820190506116226000830185611347565b61162f602083018461126d565b9392505050565b6000602082019050818103600083015261164f81611374565b9050919050565b6000602082019050818103600083015261166f816113da565b9050919050565b6000602082019050818103600083015261168f8161141a565b9050919050565b600060208201905081810360008301526116af8161145a565b9050919050565b60006020820190506116cb6000830184611524565b92915050565b600060c0820190506116e66000830189611524565b6116f3602083018861126d565b6117006040830187611365565b61170d6060830186611347565b61171a6080830185611524565b61172760a0830184611524565b979650505050505050565b6000819050602082019050919050565b6000819050602082019050919050565b600081519050919050565b600081519050919050565b6000602082019050919050565b6000602082019050919050565b600082825260208201905092915050565b600082825260208201905092915050565b600082825260208201905092915050565b60006117c0826118f4565b91506117cb836118f4565b9250827fffffffffffffffffffffffffffffffffffffffffffffffffffffffffffffffff03821115611800576117ff611910565b5b828201905092915050565b6000611816826118f4565b9150611821836118f4565b9250817fffffffffffffffffffffffffffffffffffffffffffffffffffffffffffffffff048311821515161561185a57611859611910565b5b828202905092915050565b6000611870826118f4565b915061187b836118f4565b92508282101561188e5761188d611910565b5b828203905092915050565b60006118a4826118d4565b9050919050565b60008115159050919050565b6000819050919050565b60008190506118cf8261196e565b919050565b600073ffffffffffffffffffffffffffffffffffffffff82169050919050565b6000819050919050565b6000611909826118c1565b9050919050565b7f4e487b7100000000000000000000000000000000000000000000000000000000600052601160045260246000fd5b7f4e487b7100000000000000000000000000000000000000000000000000000000600052602160045260246000fd5b6002811061197f5761197e61193f565b5b50565b61198b81611899565b811461199657600080fd5b50565b6119a2816118ab565b81146119ad57600080fd5b50565b6119b9816118b7565b81146119c457600080fd5b50565b600281106119d457600080fd5b50565b6119e0816118f4565b81146119eb57600080fd5b5056fea264697066735822122022a27e1878551852b88df2857d04ef042ee7e802d89b88e5ddee62daad39b2cc64736f6c63430008000033",
  "immutableReferences": {},
  "source": "// SPDX-License-Identifier: MIT\r\npragma solidity >=0.8.0 <0.9.0;\r\n\r\nimport \"./wallet.sol\";\r\nimport \"@openzeppelin/contracts/utils/math/SafeMath.sol\";\r\n\r\ncontract Dex is Wallet {\r\n\r\n    using SafeMath for uint256;\r\n\r\n    enum Side {\r\n        BUY,\r\n        SELL\r\n    }\r\n\r\n    struct Order {\r\n        uint id;\r\n        address trader;\r\n        Side side;\r\n        bytes32 ticker;\r\n        uint amount;\r\n        uint price;\r\n    }\r\n\r\n    mapping(bytes32 => mapping(uint => Order[])) public orderBook;\r\n    \r\n    function getOrderBook(bytes32 ticker, Side side) view public returns(Order[] memory) {\r\n        return orderBook[ticker][uint(side)];\r\n        //getOrderBook(bytes32(\"LINK\"), Side.Buy);\r\n    }\r\n\r\n    \r\n    function createLimitOrder(Side side, bytes32 ticker, uint amount, uint price) public{\r\n        if(side == Side.BUY){\r\n            require(balances[msg.sender][\"ETH\"] >= amount.mul(price));\r\n        }\r\n    }\r\n\r\n    \r\n}",
  "sourcePath": "/mnt/c/Users/Gen8/Documents/SmartContracts/eth201/dex/contracts/dex.sol",
  "compiler": {
    "name": "solc",
    "version": "0.8.0+commit.c7dfd78e.Emscripten.clang"
  },
  "schemaVersion": "3.4.3",
  "updatedAt": "2021-10-19T08:39:47.080Z",
  "networkType": "ethereum",
  "devdoc": {
    "kind": "dev",
    "methods": {
      "owner()": {
        "details": "Returns the address of the current owner."
      },
      "renounceOwnership()": {
        "details": "Leaves the contract without owner. It will not be possible to call `onlyOwner` functions anymore. Can only be called by the current owner. NOTE: Renouncing ownership will leave the contract without an owner, thereby removing any functionality that is only available to the owner."
      },
      "transferOwnership(address)": {
        "details": "Transfers ownership of the contract to a new account (`newOwner`). Can only be called by the current owner."
      }
    },
    "version": 1
  },
  "userdoc": {
    "kind": "user",
    "methods": {},
    "version": 1
  }
}