{
  "contractName": "Wallet",
  "abi": [
    {
      "anonymous": false,
      "inputs": [
        {
          "indexed": true,
          "internalType": "address",
          "name": "previousOwner",
          "type": "address"
        },
        {
          "indexed": true,
          "internalType": "address",
          "name": "newOwner",
          "type": "address"
        }
      ],
      "name": "OwnershipTransferred",
      "type": "event"
    },
    {
      "inputs": [
        {
          "internalType": "address",
          "name": "",
          "type": "address"
        },
        {
          "internalType": "bytes32",
          "name": "",
          "type": "bytes32"
        }
      ],
      "name": "balances",
      "outputs": [
        {
          "internalType": "uint256",
          "name": "",
          "type": "uint256"
        }
      ],
      "stateMutability": "view",
      "type": "function"
    },
    {
      "inputs": [],
      "name": "owner",
      "outputs": [
        {
          "internalType": "address",
          "name": "",
          "type": "address"
        }
      ],
      "stateMutability": "view",
      "type": "function"
    },
    {
      "inputs": [],
      "name": "renounceOwnership",
      "outputs": [],
      "stateMutability": "nonpayable",
      "type": "function"
    },
    {
      "inputs": [
        {
          "internalType": "uint256",
          "name": "",
          "type": "uint256"
        }
      ],
      "name": "tokenList",
      "outputs": [
        {
          "internalType": "bytes32",
          "name": "",
          "type": "bytes32"
        }
      ],
      "stateMutability": "view",
      "type": "function"
    },
    {
      "inputs": [
        {
          "internalType": "bytes32",
          "name": "",
          "type": "bytes32"
        }
      ],
      "name": "tokenMapping",
      "outputs": [
        {
          "internalType": "bytes32",
          "name": "ticker",
          "type": "bytes32"
        },
        {
          "internalType": "address",
          "name": "tokenAddress",
          "type": "address"
        }
      ],
      "stateMutability": "view",
      "type": "function"
    },
    {
      "inputs": [
        {
          "internalType": "address",
          "name": "newOwner",
          "type": "address"
        }
      ],
      "name": "transferOwnership",
      "outputs": [],
      "stateMutability": "nonpayable",
      "type": "function"
    },
    {
      "inputs": [
        {
          "internalType": "bytes32",
          "name": "ticker",
          "type": "bytes32"
        },
        {
          "internalType": "address",
          "name": "tokenAddress",
          "type": "address"
        }
      ],
      "name": "addToken",
      "outputs": [],
      "stateMutability": "nonpayable",
      "type": "function"
    },
    {
      "inputs": [],
      "name": "getTokenList",
      "outputs": [
        {
          "internalType": "bytes32[]",
          "name": "",
          "type": "bytes32[]"
        }
      ],
      "stateMutability": "view",
      "type": "function"
    },
    {
      "inputs": [
        {
          "internalType": "uint256",
          "name": "amount",
          "type": "uint256"
        },
        {
          "internalType": "bytes32",
          "name": "ticker",
          "type": "bytes32"
        }
      ],
      "name": "deposit",
      "outputs": [],
      "stateMutability": "nonpayable",
      "type": "function"
    },
    {
      "inputs": [
        {
          "internalType": "uint256",
          "name": "amount",
          "type": "uint256"
        },
        {
          "internalType": "bytes32",
          "name": "ticker",
          "type": "bytes32"
        }
      ],
      "name": "withdraw",
      "outputs": [],
      "stateMutability": "nonpayable",
      "type": "function"
    }
  ],
  "bytecode": "0x608060405234801561001057600080fd5b5061002d61002261003260201b60201c565b61003a60201b60201c565b6100fe565b600033905090565b60008060009054906101000a900473ffffffffffffffffffffffffffffffffffffffff169050816000806101000a81548173ffffffffffffffffffffffffffffffffffffffff021916908373ffffffffffffffffffffffffffffffffffffffff1602179055508173ffffffffffffffffffffffffffffffffffffffff168173ffffffffffffffffffffffffffffffffffffffff167f8be0079c531659141344cd1fd0a4f28419497f9722a3daafe3b4186f6b6457e060405160405180910390a35050565b61123b8061010d6000396000f3fe608060405234801561001057600080fd5b506004361061009e5760003560e01c80639776aacf116100665780639776aacf1461014a5780639ead722214610166578063a8d2021a14610196578063c9630cb0146101b2578063f2fde38b146101ce5761009e565b80631f14df69146100a3578063273cbaa0146100d3578063667cb4ba146100f1578063715018a6146101225780638da5cb5b1461012c575b600080fd5b6100bd60048036038101906100b89190610bd1565b6101ea565b6040516100ca9190611039565b60405180910390f35b6100db61020f565b6040516100e89190610f53565b60405180910390f35b61010b60048036038101906101069190610c36565b610267565b604051610119929190610f90565b60405180910390f35b61012a6102ab565b005b610134610333565b6040516101419190610ed8565b60405180910390f35b610164600480360381019061015f9190610c5f565b61035c565b005b610180600480360381019061017b9190610c9b565b610497565b60405161018d9190610f75565b60405180910390f35b6101b060048036038101906101ab9190610cc4565b6104bb565b005b6101cc60048036038101906101c79190610cc4565b61076e565b005b6101e860048036038101906101e39190610ba8565b610990565b005b6003602052816000526040600020602052806000526040600020600091509150505481565b6060600280548060200260200160405190810160405280929190818152602001828054801561025d57602002820191906000526020600020905b815481526020019060010190808311610249575b5050505050905090565b60016020528060005260406000206000915090508060000154908060010160009054906101000a900473ffffffffffffffffffffffffffffffffffffffff16905082565b6102b3610a88565b73ffffffffffffffffffffffffffffffffffffffff166102d1610333565b73ffffffffffffffffffffffffffffffffffffffff1614610327576040517f08c379a000000000000000000000000000000000000000000000000000000000815260040161031e90610ff9565b60405180910390fd5b6103316000610a90565b565b60008060009054906101000a900473ffffffffffffffffffffffffffffffffffffffff16905090565b610364610a88565b73ffffffffffffffffffffffffffffffffffffffff16610382610333565b73ffffffffffffffffffffffffffffffffffffffff16146103d8576040517f08c379a00000000000000000000000000000000000000000000000000000000081526004016103cf90610ff9565b60405180910390fd5b60405180604001604052808381526020018273ffffffffffffffffffffffffffffffffffffffff16815250600160008481526020019081526020016000206000820151816000015560208201518160010160006101000a81548173ffffffffffffffffffffffffffffffffffffffff021916908373ffffffffffffffffffffffffffffffffffffffff16021790555090505060028290806001815401808255809150506001900390600052602060002001600090919091909150555050565b600281815481106104a757600080fd5b906000526020600020016000915090505481565b80600073ffffffffffffffffffffffffffffffffffffffff166001600083815260200190815260200160002060010160009054906101000a900473ffffffffffffffffffffffffffffffffffffffff1673ffffffffffffffffffffffffffffffffffffffff161415610562576040517f08c379a000000000000000000000000000000000000000000000000000000000815260040161055990610fd9565b60405180910390fd5b82600360003373ffffffffffffffffffffffffffffffffffffffff1673ffffffffffffffffffffffffffffffffffffffff16815260200190815260200160002060008481526020019081526020016000205410156105f5576040517f08c379a00000000000000000000000000000000000000000000000000000000081526004016105ec90611019565b60405180910390fd5b82600360003373ffffffffffffffffffffffffffffffffffffffff1673ffffffffffffffffffffffffffffffffffffffff16815260200190815260200160002060008481526020019081526020016000205461065191906110f4565b600360003373ffffffffffffffffffffffffffffffffffffffff1673ffffffffffffffffffffffffffffffffffffffff1681526020019081526020016000206000848152602001908152602001600020819055506001600083815260200190815260200160002060010160009054906101000a900473ffffffffffffffffffffffffffffffffffffffff1673ffffffffffffffffffffffffffffffffffffffff1663a9059cbb33856040518363ffffffff1660e01b8152600401610716929190610f2a565b602060405180830381600087803b15801561073057600080fd5b505af1158015610744573d6000803e3d6000fd5b505050506040513d601f19601f820116820180604052508101906107689190610c0d565b50505050565b80600073ffffffffffffffffffffffffffffffffffffffff166001600083815260200190815260200160002060010160009054906101000a900473ffffffffffffffffffffffffffffffffffffffff1673ffffffffffffffffffffffffffffffffffffffff161415610815576040517f08c379a000000000000000000000000000000000000000000000000000000000815260040161080c90610fd9565b60405180910390fd5b82600360003373ffffffffffffffffffffffffffffffffffffffff1673ffffffffffffffffffffffffffffffffffffffff168152602001908152602001600020600084815260200190815260200160002054610871919061109e565b600360003373ffffffffffffffffffffffffffffffffffffffff1673ffffffffffffffffffffffffffffffffffffffff1681526020019081526020016000206000848152602001908152602001600020819055506001600083815260200190815260200160002060010160009054906101000a900473ffffffffffffffffffffffffffffffffffffffff1673ffffffffffffffffffffffffffffffffffffffff166323b872dd3330866040518463ffffffff1660e01b815260040161093893929190610ef3565b602060405180830381600087803b15801561095257600080fd5b505af1158015610966573d6000803e3d6000fd5b505050506040513d601f19601f8201168201806040525081019061098a9190610c0d565b50505050565b610998610a88565b73ffffffffffffffffffffffffffffffffffffffff166109b6610333565b73ffffffffffffffffffffffffffffffffffffffff1614610a0c576040517f08c379a0000000000000000000000000000000000000000000000000000000008152600401610a0390610ff9565b60405180910390fd5b600073ffffffffffffffffffffffffffffffffffffffff168173ffffffffffffffffffffffffffffffffffffffff161415610a7c576040517f08c379a0000000000000000000000000000000000000000000000000000000008152600401610a7390610fb9565b60405180910390fd5b610a8581610a90565b50565b600033905090565b60008060009054906101000a900473ffffffffffffffffffffffffffffffffffffffff169050816000806101000a81548173ffffffffffffffffffffffffffffffffffffffff021916908373ffffffffffffffffffffffffffffffffffffffff1602179055508173ffffffffffffffffffffffffffffffffffffffff168173ffffffffffffffffffffffffffffffffffffffff167f8be0079c531659141344cd1fd0a4f28419497f9722a3daafe3b4186f6b6457e060405160405180910390a35050565b600081359050610b63816111a9565b92915050565b600081519050610b78816111c0565b92915050565b600081359050610b8d816111d7565b92915050565b600081359050610ba2816111ee565b92915050565b600060208284031215610bba57600080fd5b6000610bc884828501610b54565b91505092915050565b60008060408385031215610be457600080fd5b6000610bf285828601610b54565b9250506020610c0385828601610b7e565b9150509250929050565b600060208284031215610c1f57600080fd5b6000610c2d84828501610b69565b91505092915050565b600060208284031215610c4857600080fd5b6000610c5684828501610b7e565b91505092915050565b60008060408385031215610c7257600080fd5b6000610c8085828601610b7e565b9250506020610c9185828601610b54565b9150509250929050565b600060208284031215610cad57600080fd5b6000610cbb84828501610b93565b91505092915050565b60008060408385031215610cd757600080fd5b6000610ce585828601610b93565b9250506020610cf685828601610b7e565b9150509250929050565b6000610d0c8383610d85565b60208301905092915050565b610d2181611128565b82525050565b6000610d3282611064565b610d3c818561107c565b9350610d4783611054565b8060005b83811015610d78578151610d5f8882610d00565b9750610d6a8361106f565b925050600181019050610d4b565b5085935050505092915050565b610d8e81611146565b82525050565b610d9d81611146565b82525050565b6000610db060268361108d565b91507f4f776e61626c653a206e6577206f776e657220697320746865207a65726f206160008301527f64647265737300000000000000000000000000000000000000000000000000006020830152604082019050919050565b6000610e1660148361108d565b91507f546f6b656e20646f6573206e6f742065786973740000000000000000000000006000830152602082019050919050565b6000610e5660208361108d565b91507f4f776e61626c653a2063616c6c6572206973206e6f7420746865206f776e65726000830152602082019050919050565b6000610e9660168361108d565b91507f42616c616e6365206e6f742073756666696369656e74000000000000000000006000830152602082019050919050565b610ed281611170565b82525050565b6000602082019050610eed6000830184610d18565b92915050565b6000606082019050610f086000830186610d18565b610f156020830185610d18565b610f226040830184610ec9565b949350505050565b6000604082019050610f3f6000830185610d18565b610f4c6020830184610ec9565b9392505050565b60006020820190508181036000830152610f6d8184610d27565b905092915050565b6000602082019050610f8a6000830184610d94565b92915050565b6000604082019050610fa56000830185610d94565b610fb26020830184610d18565b9392505050565b60006020820190508181036000830152610fd281610da3565b9050919050565b60006020820190508181036000830152610ff281610e09565b9050919050565b6000602082019050818103600083015261101281610e49565b9050919050565b6000602082019050818103600083015261103281610e89565b9050919050565b600060208201905061104e6000830184610ec9565b92915050565b6000819050602082019050919050565b600081519050919050565b6000602082019050919050565b600082825260208201905092915050565b600082825260208201905092915050565b60006110a982611170565b91506110b483611170565b9250827fffffffffffffffffffffffffffffffffffffffffffffffffffffffffffffffff038211156110e9576110e861117a565b5b828201905092915050565b60006110ff82611170565b915061110a83611170565b92508282101561111d5761111c61117a565b5b828203905092915050565b600061113382611150565b9050919050565b60008115159050919050565b6000819050919050565b600073ffffffffffffffffffffffffffffffffffffffff82169050919050565b6000819050919050565b7f4e487b7100000000000000000000000000000000000000000000000000000000600052601160045260246000fd5b6111b281611128565b81146111bd57600080fd5b50565b6111c98161113a565b81146111d457600080fd5b50565b6111e081611146565b81146111eb57600080fd5b50565b6111f781611170565b811461120257600080fd5b5056fea2646970667358221220980506b8ffe84c38c94d24af7bc0790a36c333bd1fc52ccc1d22d94aca1f832164736f6c63430008000033",
  "immutableReferences": {},
  "source": "// SPDX-License-Identifier: MIT\r\npragma solidity >=0.8.0 <0.9.0;\r\n\r\nimport '../node_modules/@openzeppelin/contracts/token/ERC20/IERC20.sol';\r\nimport '../node_modules/@openzeppelin/contracts/access/Ownable.sol';\r\n\r\ncontract Wallet is Ownable{\r\n    struct Token {\r\n        bytes32 ticker;\r\n        address tokenAddress;\r\n    }\r\n    mapping(bytes32 => Token) public tokenMapping;\r\n    bytes32[] public tokenList;\r\n\r\n    mapping(address => mapping(bytes32 => uint256 )) public balances;\r\n\r\n    modifier tokenExist(bytes32 ticker){\r\n        require(tokenMapping[ticker].tokenAddress != address(0), \"Token does not exist\"); // Token exist?\r\n        _;\r\n    }\r\n\r\n    function addToken(bytes32 ticker, address tokenAddress) onlyOwner external {\r\n        tokenMapping[ticker] = Token(ticker, tokenAddress);\r\n        tokenList.push(ticker);\r\n    }\r\n\r\n    function getTokenList() public view returns (bytes32[] memory){\r\n        return tokenList;\r\n    }\r\n\r\n    function deposit(uint amount, bytes32 ticker) tokenExist(ticker) external {\r\n        balances[msg.sender][ticker] = balances[msg.sender][ticker] + amount;\r\n        IERC20(tokenMapping[ticker].tokenAddress).transferFrom(msg.sender, address(this), amount);\r\n    }\r\n    function withdraw(uint amount, bytes32 ticker) tokenExist(ticker) external {\r\n        require(balances[msg.sender][ticker] >= amount, \"Balance not sufficient\");\r\n        balances[msg.sender][ticker] = balances[msg.sender][ticker] - amount;\r\n        IERC20(tokenMapping[ticker].tokenAddress).transfer(msg.sender, amount);\r\n    }\r\n}",
  "sourcePath": "/mnt/c/Users/Gen8/Documents/SmartContracts/eth201/dex/contracts/wallet.sol",
  "compiler": {
    "name": "solc",
    "version": "0.8.0+commit.c7dfd78e.Emscripten.clang"
  },
  "schemaVersion": "3.4.3",
  "updatedAt": "2021-10-19T08:39:33.268Z",
  "devdoc": {
    "kind": "dev",
    "methods": {
      "owner()": {
        "details": "Returns the address of the current owner."
      },
      "renounceOwnership()": {
        "details": "Leaves the contract without owner. It will not be possible to call `onlyOwner` functions anymore. Can only be called by the current owner. NOTE: Renouncing ownership will leave the contract without an owner, thereby removing any functionality that is only available to the owner."
      },
      "transferOwnership(address)": {
        "details": "Transfers ownership of the contract to a new account (`newOwner`). Can only be called by the current owner."
      }
    },
    "version": 1
  },
  "userdoc": {
    "kind": "user",
    "methods": {},
    "version": 1
  }
}